:020000000F2EC1
:10000800FF00030E8301D9000A08DA008A0170088C
:10001800A0000B1D3F282C08013A031D1F2864303F
:100028003402031C1C288101B4010130A5003F28BB
:100038000B11B40A3F283D08013A031D2F286430EC
:100048003302031C2C288101B3010130B7003F287B
:100058000B11B30A3F282708013A031D3F283C30FB
:100068003802031C3C288101B8010130A6003F2852
:100078000B11B80A3F282008F0005A088A00590EC8
:080088008300FF0E7F0E09004A
:0E009000213083120313FD00FD0B4C280800E5
:10009E000F3083120313FC004730FD00FD0B552873
:0A00AE00FC0B5528000000000800BC
:0600B8000000000008003A
:1000BE0083160313A21B66288312861268288312E6
:1000CE0086168316221B6E28831206127028831240
:1000DE0006168316A21A76288312861178288312A2
:1000EE0086158316221A7E28831206118028831203
:1000FE0006154418842806148528061086145C20DC
:10010E0086108316A2198E288312861290288312C7
:10011E0086168316221996288312061298288312A1
:10012E0006168316A2189E2883128611A028831203
:10013E00861583162218A62883120611A828831264
:10014E0006154418AC280614AD28061086145C203B
:0E015E008610441CB4284F20B5284820080005
:10016C0083120313441083162108A2005F20441449
:02017C00080079
:0E017E008312031343088A004208820008001F
:10018C00D828803083120313ED00EB28C030ED002B
:10019C00EB289430ED00EB28D430ED00EB288030C8
:1001AC00ED00EB28831203136D08013A0319C728DD
:1001BC006D08023A0319CC286D08033A0319CF28AD
:1001CC006D08043A0319D228D5286E03F0006D0887
:1001DC00F0077008ED0070088316A2005F20441031
:1001EC008316A001200883126F07840000080319EE
:1001FC000B298316200883126F07840000088316CE
:10020C00A100B6208316A00AF82883124414080013
:10021C0083120313F3017308453EF20073086D0754
:10022C00F0006E080318013EF1007008C20071085E
:10023C00C300BF208A110A12F000720884007008F3
:10024C00800072088400000803192E29F30A112972
:06025C004530F00008002F
:10026200831203138101A0308B00073083168100B3
:100272000130A2005F203908ED003A08EE000E219D
:100282007008EF000130ED000130EE00C6203E089C
:10029200ED003F08EE000E217008EF000230ED0085
:1002A2000130EE00C6208817B7010130BD003708C3
:1002B200003A031D6B290B30FB002630FC005D3039
:1002C200FD00FD0B6229FC0B6229FB0B6229000079
:1002D200000058298813BD01B70181018B018316E3
:0402E200810108008E
:1002E600043083120313FB000C30FC003330FD0096
:1002F600FD0B7B29FC0B7B29FB0B7B2900000000F7
:020306000800ED
:10030800013083120313AC00AA01AB01A5018101DE
:10031800A0308B0007308316810083122508003A2D
:10032800031D332A0330FB000830FC007730FD0042
:10033800FD0B9C29FC0B9C29FB0B9C290818AA295E
:1003480073210530AA070318AB0AC9298818B229EE
:1003580073210A30AA070318AB0AC9290819BA2950
:1003680073211430AA070318AB0AC9298819C229AE
:1003780073213230AA070318AB0AC929081AC929F8
:1003880073216430AA070318AB0A80302B06F000EB
:1003980080305C067002031DD3295B082A02031C07
:1003A800322A01308316A2005F202308ED002408BA
:1003B800EE000E217008EF000130ED000130EE0074
:1003C800C6202108ED002208EE000E217008EF007B
:1003D8000230ED000130EE00C6205B08C0005C086A
:1003E800C10080304106F00080302B067002031DEA
:1003F800FF292A08400203180E2A8817732173213F
:10040800732188137321732173210530C0070318E2
:10041800C10AF52901308316A2005F202808ED00E3
:100428002908EE000E217008EF000130ED000130C0
:10043800EE00C620AC01A5010130A700A601B80155
:100448008101A0308B0007308316810083122608B3
:10045800003A031D312A73212A2A3F2A9129AC0127
:10046800A5018B0183168101312183123708003AD7
:0804780003193F2AB701080037
:10048000013083120313DB000030DC002330DD0079
:100490000730DE005630DF000730E000AF30E1000B
:1004A0000730E200C430E3000630E400D630E50057
:1004B0000630E6006230E7000730E80001308316BE
:1004C000A2005F205D08ED005E08EE000E217008BE
:1004D000EF000130ED000130EE00C6205F08ED00B6
:1004E0006008EE000E217008EF000230ED000130D0
:1004F000EE00C6200F308316A2005F2080308316E6
:10050000A2005F200818E42A732100305C06031D56
:100510008B2A03305B06031DB22A01308316A2002A
:100520005F205D08ED005E08EE000E217008EF0010
:100530000130ED000130EE00C6205F08ED006008DC
:10054000EE000E217008EF000230ED000130EE00E9
:10055000C620C0308316A2005F200230DB000030CE
:10056000DC00E32A00305C06031DB82A02305B067B
:10057000031DC32A80308316A2005F200130DB00F8
:100580000030DC00E32A00305C06031DC92A01307C
:100590005B06031DE32A01308316A2005F20610879
:1005A000ED006208EE000E217008EF000130ED0052
:1005B0000130EE00C62080308316A2005F20033099
:1005C000DB000030DC00C32B8818462B7321003081
:1005D0005C06031DED2A03305B06031D142B01305E
:1005E0008316A2005F205D08ED005E08EE000E217C
:1005F0007008EF000130ED000130EE00C6205F080A
:10060000ED006008EE000E217008EF000230ED00F2
:100610000130EE00C62080308316A2005F2001303A
:10062000DB000030DC00452B00305C06031D1A2B7C
:1006300002305B06031D352B01308316A2005F20BC
:100640006108ED006208EE000E217008EF00013035
:10065000ED000130EE00C62080308316A2005F203E
:100660000330DB000030DC00452B00305C06031D4E
:100670003B2B01305B06031D452BC0308316A200C7
:100680005F200230DB000030DC00C32B0819C32BD5
:1006900000305C06031D4E2B01305B06031D712BE1
:1006A00001308316A2005F206308ED006408EE00AD
:1006B0000E217008EF000130ED000130EE00C62081
:1006C0003508ED003608EE000E217008EF0002300C
:1006D000ED000130EE00C6203230F0000030F100B5
:1006E000C42B00305C06031D772B02305B06031D14
:1006F0009A2B01308316A2005F206508ED00660882
:10070000EE000E217008EF000130ED000130EE0028
:10071000C6203508ED003608EE000E217008EF0007
:100720000230ED000130EE00C6203230F000003023
:10073000F100C42B00305C06031DA02B03305B06C8
:10074000031DC32B01308316A2005F206708ED0054
:100750006808EE000E217008EF000130ED00013056
:10076000EE00C6203508ED003608EE000E217008B8
:10077000EF000230ED000130EE00C6204B30F000FB
:0A0780000030F100C42B822A0800AB
:10078A00013083120313DB000030DC00BA30DD00D5
:10079A000730DE00A830DF000730E0007830E100E3
:1007AA000730E200B530E3000730E4009F30E5008F
:1007BA000730E6004A30E7000730E800F730E90082
:1007CA000630EA008230EB000730EC000130831675
:1007DA00A2005F205D08ED005E08EE000E217008A1
:1007EA00EF000130ED000130EE00C6205F08ED0099
:1007FA006008EE000E217008EF000230ED000130B3
:10080A00EE00C6200F308316A2005F2080308316C8
:10081A00A2005F2008188E2C732100305C06031D8D
:10082A00182C04305B06031D232C80308316A2008B
:10083A005F200330DB000030DC008D2C00305C06CA
:10084A00031D292C03305B06031D502C013083162F
:10085A00A2005F205D08ED005E08EE000E21700820
:10086A00EF000130ED000130EE00C6205F08ED0018
:10087A006008EE000E217008EF000230ED00013032
:10088A00EE00C620C0308316A2005F200230DB00D3
:10089A000030DC008D2C00305C06031D562C023023
:1008AA005B06031D612C80308316A2005F20013095
:1008BA00DB000030DC008D2C00305C06031D672C49
:1008CA0001305B06031D8D2C01308316A2005F20C8
:1008DA006108ED006208EE000E217008EF00013099
:1008EA00ED000130EE00C6206308ED006408EE005A
:1008FA000E217008EF000230ED000130EE00C62034
:10090A00C0308316A2005F200430DB000030DC0018
:10091A00B32D88180D2D732100305C06031D972C0A
:10092A0004305B06031DBE2C01308316A2005F2033
:10093A005D08ED005E08EE000E217008EF00013040
:10094A00ED000130EE00C6205F08ED006008EE0001
:10095A000E217008EF000230ED000130EE00C620D3
:10096A0080308316A2005F200130DB000030DC00FB
:10097A000C2D00305C06031DC42C03305B06031DDE
:10098A00CF2CC0308316A2005F200430DB00003079
:10099A00DC000C2D00305C06031DD52C02305B06F2
:1009AA00031DFC2C01308316A2005F206108ED00B4
:1009BA006208EE000E217008EF000130ED000130F0
:1009CA00EE00C6206308ED006408EE000E217008F0
:1009DA00EF000230ED000130EE00C62080308316B1
:1009EA00A2005F200330DB000030DC000C2D003059
:1009FA005C06031D022D01305B06031D0C2DC03061
:100A0A008316A2005F200230DB000030DC00B32D29
:100A1A000819B32D00305C06031D152D01305B0645
:100A2A00031D382D01308316A2005F206508ED00F2
:100A3A006608EE000E217008EF000130ED0001306B
:100A4A00EE00C6203508ED003608EE000E217008CB
:100A5A00EF000230ED000130EE00C6205030F00009
:100A6A000030F100B42D00305C06031D3E2D02302B
:100A7A005B06031D612D01308316A2005F20670803
:100A8A00ED006808EE000E217008EF000130ED005D
:100A9A000130EE00C6203508ED003608EE000E21C2
:100AAA007008EF000230ED000130EE00C6205A3027
:100ABA00F0000030F100B42D00305C06031D672DF4
:100ACA0003305B06031D8A2D01308316A2005F20C6
:100ADA006908ED006A08EE000E217008EF00013087
:100AEA00ED000130EE00C6203508ED003608EE00B4
:100AFA000E217008EF000230ED000130EE00C62032
:100B0A004130F0000030F100B42D00305C06031DC6
:100B1A00902D04305B06031DB32D01308316A2000D
:100B2A005F206B08ED006C08EE000E217008EF00E4
:100B3A000130ED000130EE00C6203508ED00360820
:100B4A00EE000E217008EF000230ED000130EE00D9
:100B5A00C6204630F0000030F100B42D0F2C0800FA
:100B6A0083160313861006100611861106128612C2
:100B7A0083128610061086120612861106114F205D
:100B8A004F204F208615061586145C2086104F20AC
:100B9A0086145C2086104F2086145C2086104F2015
:100BAA00061186145C2086104F2086145C2086105D
:100BBA008611861686145C2086104F20861206152A
:100BCA0086145C208610061186145C2086104F203D
:100BDA0086145C208610061586145C2086104F2029
:100BEA00061186145C2086108616061686150615CA
:0C0BFA0086145C2086104F204414080074
:100C0600BF208A110A128000840AC20A0319C30A85
:080C1600F003031D032E08008A
:100C1E00063083120313A1000730A2001530A30083
:100C2E000730A400A501A601A701E730A8000630F1
:100C3E00A900AA01AB01AC01AD01AE010130AF00BC
:100C4E00B0018C30B1000730B200B301B4013D30B9
:100C5E00B5000730B600B701B8019630B9000730BD
:100C6E00BA006D30BB000730BC00BD013030BE0095
:100C7E000730BF00B5251F308316880083128813F6
:100C8E003B08ED003C08EE000E217008EF0001302D
:100C9E00ED000130EE00C6203108ED003208EE0006
:100CAE000E217008EF000230ED000130EE00C6207C
:100CBE000F308316A2005F2080308316A2005F20C3
:100CCE001F308316880083120818772E8030831603
:100CDE00A2005F200130AF000030B0007321C22EA1
:100CEE008818832EC0308316A2005F200230AF001A
:100CFE000030B0007321C22E0819C22E73210030AD
:100D0E003006031D8C2E01302F060319942EC52399
:100D1E007008AD007108AE00992E40227008AD002B
:100D2E007108AE002D08DB002E08DC008421013096
:100D3E00AF000030B00001308316A2005F203B08E8
:100D4E00ED003C08EE000E217008EF000130ED00C2
:100D5E000130EE00C6203108ED003208EE000E2103
:100D6E007008EF000230ED000130EE00C62080303A
:0A0D7E008316A2005F206A2EC32E28
:100D88004F34723461346E346734653420346A34D5
:100D980075346934633465343D3435343034203443
:040DA800503400348F
:100DAC00463469347A347A34793420346434723485
:100DBC0069346E346B343D34353430342034503433
:020DCC000034F1
:100DCE004434723469346E346B3420346434693490
:100DDE007334703465346E34733465346434003473
:100DEE00433468346F3463346F346C346134743428
:0E0DFE0065343D3436343534203450340034FE
:100E0C007034613479346D3465346E347434203418
:0E0E1C00663469346E346934733468340034DB
:100E2A00723465347434753472346E3420346534F3
:0C0E3A007834633465347334733400344E
:100E46004F34723461346E346734653420346A3416
:0A0E560075346934633465340034E8
:100E6000723465347434753472346E3420344D34D5
:0A0E70006F346E34653479340034B9
:100E7A0049346E34733465347234743420344D34E6
:0A0E8A006F346E346534793400349F
:100E940043346F3466346634653465343D343934F0
:080EA4003034203450340034D6
:100EAC00463469347A347A34793420346434723484
:080EBC0069346E346B3400341C
:100EC400573461347434653472343D3437343534D2
:060ED4002034503400340C
:100EDA0043346F346C346434203464347234693487
:060EEA006E346B3400348D
:100EF000433468346F3463346F346C346134743425
:040F00006534003420
:100F040053346F34753470343D34373430342034D2
:040F14005034003421
:100F180048346F34743420346434723469346E3431
:040F28006B340034F2
:100F2C00543469346D34653420344F34753474342E
:020F3C0000347F
:100F3E005434653461343D343834303420345034D4
:020F4E0000346D
:0E0F500043346F3466346634653465340034DF
:0C0F5E007734613474346534723400342C
:0A0F6A0053346F34753470340034D2
:080F740054346534613400348B
:02400E004A2F37
:00000001FF
